{
  "_format": "hh-sol-artifact-1",
  "contractName": "Admin",
  "sourceName": "contracts/Admin.sol",
  "abi": [
    {
      "inputs": [
        {
          "internalType": "address",
          "name": "initialOwner",
          "type": "address"
        }
      ],
      "stateMutability": "nonpayable",
      "type": "constructor"
    },
    {
      "inputs": [
        {
          "internalType": "address",
          "name": "owner",
          "type": "address"
        }
      ],
      "name": "OwnableInvalidOwner",
      "type": "error"
    },
    {
      "inputs": [
        {
          "internalType": "address",
          "name": "account",
          "type": "address"
        }
      ],
      "name": "OwnableUnauthorizedAccount",
      "type": "error"
    },
    {
      "anonymous": false,
      "inputs": [
        {
          "indexed": false,
          "internalType": "uint256",
          "name": "candidateId",
          "type": "uint256"
        },
        {
          "indexed": false,
          "internalType": "string",
          "name": "name",
          "type": "string"
        }
      ],
      "name": "CandidateAdded",
      "type": "event"
    },
    {
      "anonymous": false,
      "inputs": [
        {
          "indexed": false,
          "internalType": "uint256",
          "name": "candidateId",
          "type": "uint256"
        }
      ],
      "name": "CandidateDeactivated",
      "type": "event"
    },
    {
      "anonymous": false,
      "inputs": [
        {
          "indexed": true,
          "internalType": "address",
          "name": "previousOwner",
          "type": "address"
        },
        {
          "indexed": true,
          "internalType": "address",
          "name": "newOwner",
          "type": "address"
        }
      ],
      "name": "OwnershipTransferred",
      "type": "event"
    },
    {
      "anonymous": false,
      "inputs": [
        {
          "indexed": false,
          "internalType": "uint256",
          "name": "start",
          "type": "uint256"
        },
        {
          "indexed": false,
          "internalType": "uint256",
          "name": "end",
          "type": "uint256"
        }
      ],
      "name": "VotingPeriodUpdated",
      "type": "event"
    },
    {
      "inputs": [
        {
          "internalType": "string",
          "name": "_name",
          "type": "string"
        },
        {
          "internalType": "address",
          "name": "_candidateAddress",
          "type": "address"
        }
      ],
      "name": "addCandidate",
      "outputs": [],
      "stateMutability": "nonpayable",
      "type": "function"
    },
    {
      "inputs": [
        {
          "internalType": "uint256",
          "name": "",
          "type": "uint256"
        }
      ],
      "name": "candidateList",
      "outputs": [
        {
          "internalType": "uint256",
          "name": "id",
          "type": "uint256"
        },
        {
          "internalType": "address",
          "name": "candidateAddress",
          "type": "address"
        },
        {
          "internalType": "string",
          "name": "name",
          "type": "string"
        },
        {
          "internalType": "uint256",
          "name": "totalVotes",
          "type": "uint256"
        },
        {
          "internalType": "enum Admin.State",
          "name": "state",
          "type": "uint8"
        }
      ],
      "stateMutability": "view",
      "type": "function"
    },
    {
      "inputs": [
        {
          "internalType": "uint256",
          "name": "_candidateId",
          "type": "uint256"
        }
      ],
      "name": "deactivateCandidate",
      "outputs": [],
      "stateMutability": "nonpayable",
      "type": "function"
    },
    {
      "inputs": [],
      "name": "findBestCandidate",
      "outputs": [
        {
          "internalType": "string",
          "name": "name",
          "type": "string"
        },
        {
          "internalType": "address",
          "name": "candidateAddress",
          "type": "address"
        },
        {
          "internalType": "uint256",
          "name": "finalVotes",
          "type": "uint256"
        }
      ],
      "stateMutability": "view",
      "type": "function"
    },
    {
      "inputs": [],
      "name": "getAllCandidates",
      "outputs": [
        {
          "internalType": "uint256[]",
          "name": "",
          "type": "uint256[]"
        }
      ],
      "stateMutability": "view",
      "type": "function"
    },
    {
      "inputs": [],
      "name": "getAllCandidates1",
      "outputs": [
        {
          "internalType": "int256",
          "name": "",
          "type": "int256"
        }
      ],
      "stateMutability": "view",
      "type": "function"
    },
    {
      "inputs": [
        {
          "internalType": "uint256",
          "name": "_candidateId",
          "type": "uint256"
        }
      ],
      "name": "getCandidateDetails",
      "outputs": [
        {
          "internalType": "uint256",
          "name": "id",
          "type": "uint256"
        },
        {
          "internalType": "address",
          "name": "candidateAddress",
          "type": "address"
        },
        {
          "internalType": "string",
          "name": "name",
          "type": "string"
        },
        {
          "internalType": "uint256",
          "name": "votesCount",
          "type": "uint256"
        },
        {
          "internalType": "enum Admin.State",
          "name": "state",
          "type": "uint8"
        }
      ],
      "stateMutability": "view",
      "type": "function"
    },
    {
      "inputs": [
        {
          "internalType": "uint256",
          "name": "",
          "type": "uint256"
        }
      ],
      "name": "idToCandidate",
      "outputs": [
        {
          "internalType": "uint256",
          "name": "id",
          "type": "uint256"
        },
        {
          "internalType": "address",
          "name": "candidateAddress",
          "type": "address"
        },
        {
          "internalType": "string",
          "name": "name",
          "type": "string"
        },
        {
          "internalType": "uint256",
          "name": "totalVotes",
          "type": "uint256"
        },
        {
          "internalType": "enum Admin.State",
          "name": "state",
          "type": "uint8"
        }
      ],
      "stateMutability": "view",
      "type": "function"
    },
    {
      "inputs": [
        {
          "internalType": "uint256",
          "name": "_id",
          "type": "uint256"
        }
      ],
      "name": "increaseCandidateVotes",
      "outputs": [
        {
          "internalType": "uint256",
          "name": "",
          "type": "uint256"
        }
      ],
      "stateMutability": "nonpayable",
      "type": "function"
    },
    {
      "inputs": [],
      "name": "nextCandidateId",
      "outputs": [
        {
          "internalType": "uint256",
          "name": "",
          "type": "uint256"
        }
      ],
      "stateMutability": "view",
      "type": "function"
    },
    {
      "inputs": [],
      "name": "owner",
      "outputs": [
        {
          "internalType": "address",
          "name": "",
          "type": "address"
        }
      ],
      "stateMutability": "view",
      "type": "function"
    },
    {
      "inputs": [],
      "name": "renounceOwnership",
      "outputs": [],
      "stateMutability": "nonpayable",
      "type": "function"
    },
    {
      "inputs": [
        {
          "internalType": "address",
          "name": "newOwner",
          "type": "address"
        }
      ],
      "name": "transferOwnership",
      "outputs": [],
      "stateMutability": "nonpayable",
      "type": "function"
    },
    {
      "inputs": [
        {
          "internalType": "uint256",
          "name": "_start",
          "type": "uint256"
        },
        {
          "internalType": "uint256",
          "name": "_end",
          "type": "uint256"
        }
      ],
      "name": "updateVotingPeriod",
      "outputs": [],
      "stateMutability": "nonpayable",
      "type": "function"
    },
    {
      "inputs": [
        {
          "internalType": "uint256",
          "name": "_candidateId",
          "type": "uint256"
        }
      ],
      "name": "verifyCandidateEligibility",
      "outputs": [
        {
          "internalType": "bool",
          "name": "",
          "type": "bool"
        }
      ],
      "stateMutability": "view",
      "type": "function"
    },
    {
      "inputs": [],
      "name": "votingEnd",
      "outputs": [
        {
          "internalType": "uint256",
          "name": "",
          "type": "uint256"
        }
      ],
      "stateMutability": "view",
      "type": "function"
    },
    {
      "inputs": [],
      "name": "votingStart",
      "outputs": [
        {
          "internalType": "uint256",
          "name": "",
          "type": "uint256"
        }
      ],
      "stateMutability": "view",
      "type": "function"
    }
  ],
  "bytecode": "0x60806040523480156200001157600080fd5b50604051620021eb380380620021eb833981810160405281019062000037919062000271565b80600073ffffffffffffffffffffffffffffffffffffffff168173ffffffffffffffffffffffffffffffffffffffff1603620000ad5760006040517f1e4fbdf7000000000000000000000000000000000000000000000000000000008152600401620000a49190620002b4565b60405180910390fd5b620000be816200014360201b60201c565b50600073ffffffffffffffffffffffffffffffffffffffff168173ffffffffffffffffffffffffffffffffffffffff1603620001345760006040517f1e4fbdf70000000000000000000000000000000000000000000000000000000081526004016200012b9190620002b4565b60405180910390fd5b600160048190555050620002d1565b60008060009054906101000a900473ffffffffffffffffffffffffffffffffffffffff169050816000806101000a81548173ffffffffffffffffffffffffffffffffffffffff021916908373ffffffffffffffffffffffffffffffffffffffff1602179055508173ffffffffffffffffffffffffffffffffffffffff168173ffffffffffffffffffffffffffffffffffffffff167f8be0079c531659141344cd1fd0a4f28419497f9722a3daafe3b4186f6b6457e060405160405180910390a35050565b600080fd5b600073ffffffffffffffffffffffffffffffffffffffff82169050919050565b600062000239826200020c565b9050919050565b6200024b816200022c565b81146200025757600080fd5b50565b6000815190506200026b8162000240565b92915050565b6000602082840312156200028a576200028962000207565b5b60006200029a848285016200025a565b91505092915050565b620002ae816200022c565b82525050565b6000602082019050620002cb6000830184620002a3565b92915050565b611f0a80620002e16000396000f3fe608060405234801561001057600080fd5b506004361061010b5760003560e01c806385a38635116100a2578063b13c744b11610071578063b13c744b146102a0578063d16ff4c8146102d4578063eb47681c146102f2578063ec8f56b71461030e578063f2fde38b1461033e5761010b565b806385a38635146102185780638da5cb5b1461023657806392c1c7c61461025457806397341d59146102845761010b565b80634a2a84c5116100de5780634a2a84c51461019e57806357e2ef10146101ba5780636f8323e7146101ee578063715018a61461020e5761010b565b8063101158af1461011057806327f9fd501461012e5780632e6997fe14610162578063379a3cd614610180575b600080fd5b61011861035a565b60405161012591906113c0565b60405180910390f35b6101486004803603810190610143919061141b565b610360565b604051610159959493929190611590565b60405180910390f35b61016a6103a2565b60405161017791906116a8565b60405180910390f35b610188610460565b60405161019591906116e3565b60405180910390f35b6101b860048036038101906101b3919061185f565b610469565b005b6101d460048036038101906101cf919061141b565b6106af565b6040516101e5959493929190611590565b60405180910390f35b6101f661079a565b604051610205939291906118bb565b60405180910390f35b610216610ab5565b005b610220610ac9565b60405161022d91906113c0565b60405180910390f35b61023e610acf565b60405161024b91906118f9565b60405180910390f35b61026e6004803603810190610269919061141b565b610af8565b60405161027b919061192f565b60405180910390f35b61029e6004803603810190610299919061141b565b610b4b565b005b6102ba60048036038101906102b5919061141b565b610c7e565b6040516102cb959493929190611590565b60405180910390f35b6102dc610d79565b6040516102e991906113c0565b60405180910390f35b61030c6004803603810190610307919061194a565b610d7f565b005b6103286004803603810190610323919061141b565b610dd2565b60405161033591906113c0565b60405180910390f35b6103586004803603810190610353919061198a565b610eb8565b005b60015481565b6000806060600080600061037387610f3e565b905080600001518160200151826040015183606001518460800151955095509550955095505091939590929450565b6060600060058054905067ffffffffffffffff8111156103c5576103c4611708565b5b6040519080825280602002602001820160405280156103f35781602001602082028036833780820191505090505b50905060005b600580549050811015610458576005818154811061041a576104196119b7565b5b90600052602060002090600502016000015482828151811061043f5761043e6119b7565b5b60200260200101818152505080806001019150506103f9565b508091505090565b60006003905090565b6104716110f4565b60006004600081548092919061048690611a15565b91905055905060006040518060a001604052808381526020018473ffffffffffffffffffffffffffffffffffffffff16815260200185815260200160008152602001600060018111156104dc576104db611519565b5b815250905080600360008481526020019081526020016000206000820151816000015560208201518160010160006101000a81548173ffffffffffffffffffffffffffffffffffffffff021916908373ffffffffffffffffffffffffffffffffffffffff160217905550604082015181600201908161055b9190611c69565b506060820151816003015560808201518160040160006101000a81548160ff0219169083600181111561059157610590611519565b5b021790555090505060058190806001815401808255809150506001900390600052602060002090600502016000909190919091506000820151816000015560208201518160010160006101000a81548173ffffffffffffffffffffffffffffffffffffffff021916908373ffffffffffffffffffffffffffffffffffffffff160217905550604082015181600201908161062b9190611c69565b506060820151816003015560808201518160040160006101000a81548160ff0219169083600181111561066157610660611519565b5b021790555050507fe83b2a43e7e82d975c8a0a6d2f045153c869e111136a34d1889ab7b598e396a3816000015182604001516040516106a1929190611d3b565b60405180910390a150505050565b60036020528060005260406000206000915090508060000154908060010160009054906101000a900473ffffffffffffffffffffffffffffffffffffffff16908060020180546106fe90611a8c565b80601f016020809104026020016040519081016040528092919081815260200182805461072a90611a8c565b80156107775780601f1061074c57610100808354040283529160200191610777565b820191906000526020600020905b81548152906001019060200180831161075a57829003601f168201915b5050505050908060030154908060040160009054906101000a900460ff16905085565b6060600080600060058054905067ffffffffffffffff8111156107c0576107bf611708565b5b6040519080825280602002602001820160405280156107f957816020015b6107e6611350565b8152602001906001900390816107de5790505b50905060005b60058054905081101561099b57600581815481106108205761081f6119b7565b5b90600052602060002090600502016040518060a0016040529081600082015481526020016001820160009054906101000a900473ffffffffffffffffffffffffffffffffffffffff1673ffffffffffffffffffffffffffffffffffffffff1673ffffffffffffffffffffffffffffffffffffffff1681526020016002820180546108a990611a8c565b80601f01602080910402602001604051908101604052809291908181526020018280546108d590611a8c565b80156109225780601f106108f757610100808354040283529160200191610922565b820191906000526020600020905b81548152906001019060200180831161090557829003601f168201915b50505050508152602001600382015481526020016004820160009054906101000a900460ff16600181111561095a57610959611519565b5b600181111561096c5761096b611519565b5b81525050828281518110610983576109826119b7565b5b602002602001018190525080806001019150506107ff565b506109a58161117b565b905060005b8151811015610a7457600060018111156109c7576109c6611519565b5b8282815181106109da576109d96119b7565b5b60200260200101516080015160018111156109f8576109f7611519565b5b03610a6757818181518110610a1057610a0f6119b7565b5b602002602001015160400151828281518110610a2f57610a2e6119b7565b5b602002602001015160200151838381518110610a4e57610a4d6119b7565b5b6020026020010151606001519450945094505050610ab0565b80806001019150506109aa565b506040517f08c379a0000000000000000000000000000000000000000000000000000000008152600401610aa790611db7565b60405180910390fd5b909192565b610abd6110f4565b610ac76000611284565b565b60025481565b60008060009054906101000a900473ffffffffffffffffffffffffffffffffffffffff16905090565b600080610b0483610360565b94505050505060006001811115610b1e57610b1d611519565b5b816001811115610b3157610b30611519565b5b03610b40576001915050610b46565b60009150505b919050565b610b536110f4565b80600081118015610b65575060045481105b610ba4576040517f08c379a0000000000000000000000000000000000000000000000000000000008152600401610b9b90611e23565b60405180910390fd5b600060036000848152602001908152602001600020905060018160040160006101000a81548160ff02191690836001811115610be357610be2611519565b5b021790555060016005600185610bf99190611e43565b81548110610c0a57610c096119b7565b5b906000526020600020906005020160040160006101000a81548160ff02191690836001811115610c3d57610c3c611519565b5b02179055507f07952e62885452aff3395e73284ce75f709da0ae6e9e559673d48926a75352ad83604051610c7191906113c0565b60405180910390a1505050565b60058181548110610c8e57600080fd5b90600052602060002090600502016000915090508060000154908060010160009054906101000a900473ffffffffffffffffffffffffffffffffffffffff1690806002018054610cdd90611a8c565b80601f0160208091040260200160405190810160405280929190818152602001828054610d0990611a8c565b8015610d565780601f10610d2b57610100808354040283529160200191610d56565b820191906000526020600020905b815481529060010190602001808311610d3957829003601f168201915b5050505050908060030154908060040160009054906101000a900460ff16905085565b60045481565b610d876110f4565b81600181905550806002819055507fffc708f072ca56e3d45ef0cb288b96cb9378f5f63e1646868bfbc9c38f4263a18282604051610dc6929190611e77565b60405180910390a15050565b60008082118015610de4575060045482105b610e23576040517f08c379a0000000000000000000000000000000000000000000000000000000008152600401610e1a90611e23565b60405180910390fd5b6001600360008481526020019081526020016000206003016000828254610e4a9190611ea0565b9250508190555060016005600184610e629190611e43565b81548110610e7357610e726119b7565b5b90600052602060002090600502016003016000828254610e939190611ea0565b9250508190555060036000838152602001908152602001600020600301549050919050565b610ec06110f4565b600073ffffffffffffffffffffffffffffffffffffffff168173ffffffffffffffffffffffffffffffffffffffff1603610f325760006040517f1e4fbdf7000000000000000000000000000000000000000000000000000000008152600401610f2991906118f9565b60405180910390fd5b610f3b81611284565b50565b610f46611350565b81600081118015610f58575060045481105b610f97576040517f08c379a0000000000000000000000000000000000000000000000000000000008152600401610f8e90611e23565b60405180910390fd5b600360008481526020019081526020016000206040518060a0016040529081600082015481526020016001820160009054906101000a900473ffffffffffffffffffffffffffffffffffffffff1673ffffffffffffffffffffffffffffffffffffffff1673ffffffffffffffffffffffffffffffffffffffff16815260200160028201805461102590611a8c565b80601f016020809104026020016040519081016040528092919081815260200182805461105190611a8c565b801561109e5780601f106110735761010080835404028352916020019161109e565b820191906000526020600020905b81548152906001019060200180831161108157829003601f168201915b50505050508152602001600382015481526020016004820160009054906101000a900460ff1660018111156110d6576110d5611519565b5b60018111156110e8576110e7611519565b5b81525050915050919050565b6110fc611348565b73ffffffffffffffffffffffffffffffffffffffff1661111a610acf565b73ffffffffffffffffffffffffffffffffffffffff16146111795761113d611348565b6040517f118cdaa700000000000000000000000000000000000000000000000000000000815260040161117091906118f9565b60405180910390fd5b565b606060008251905060005b8181101561127a57600060018261119d9190611ea0565b90505b8281101561126c578481815181106111bb576111ba6119b7565b5b6020026020010151606001518583815181106111da576111d96119b7565b5b602002602001015160600151101561125f578481815181106111ff576111fe6119b7565b5b602002602001015185838151811061121a576112196119b7565b5b6020026020010151868481518110611235576112346119b7565b5b6020026020010187848151811061124f5761124e6119b7565b5b6020026020010182905282905250505b80806001019150506111a0565b508080600101915050611186565b5082915050919050565b60008060009054906101000a900473ffffffffffffffffffffffffffffffffffffffff169050816000806101000a81548173ffffffffffffffffffffffffffffffffffffffff021916908373ffffffffffffffffffffffffffffffffffffffff1602179055508173ffffffffffffffffffffffffffffffffffffffff168173ffffffffffffffffffffffffffffffffffffffff167f8be0079c531659141344cd1fd0a4f28419497f9722a3daafe3b4186f6b6457e060405160405180910390a35050565b600033905090565b6040518060a0016040528060008152602001600073ffffffffffffffffffffffffffffffffffffffff1681526020016060815260200160008152602001600060018111156113a1576113a0611519565b5b81525090565b6000819050919050565b6113ba816113a7565b82525050565b60006020820190506113d560008301846113b1565b92915050565b6000604051905090565b600080fd5b600080fd5b6113f8816113a7565b811461140357600080fd5b50565b600081359050611415816113ef565b92915050565b600060208284031215611431576114306113e5565b5b600061143f84828501611406565b91505092915050565b600073ffffffffffffffffffffffffffffffffffffffff82169050919050565b600061147382611448565b9050919050565b61148381611468565b82525050565b600081519050919050565b600082825260208201905092915050565b60005b838110156114c35780820151818401526020810190506114a8565b60008484015250505050565b6000601f19601f8301169050919050565b60006114eb82611489565b6114f58185611494565b93506115058185602086016114a5565b61150e816114cf565b840191505092915050565b7f4e487b7100000000000000000000000000000000000000000000000000000000600052602160045260246000fd5b6002811061155957611558611519565b5b50565b600081905061156a82611548565b919050565b600061157a8261155c565b9050919050565b61158a8161156f565b82525050565b600060a0820190506115a560008301886113b1565b6115b2602083018761147a565b81810360408301526115c481866114e0565b90506115d360608301856113b1565b6115e06080830184611581565b9695505050505050565b600081519050919050565b600082825260208201905092915050565b6000819050602082019050919050565b61161f816113a7565b82525050565b60006116318383611616565b60208301905092915050565b6000602082019050919050565b6000611655826115ea565b61165f81856115f5565b935061166a83611606565b8060005b8381101561169b5781516116828882611625565b975061168d8361163d565b92505060018101905061166e565b5085935050505092915050565b600060208201905081810360008301526116c2818461164a565b905092915050565b6000819050919050565b6116dd816116ca565b82525050565b60006020820190506116f860008301846116d4565b92915050565b600080fd5b600080fd5b7f4e487b7100000000000000000000000000000000000000000000000000000000600052604160045260246000fd5b611740826114cf565b810181811067ffffffffffffffff8211171561175f5761175e611708565b5b80604052505050565b60006117726113db565b905061177e8282611737565b919050565b600067ffffffffffffffff82111561179e5761179d611708565b5b6117a7826114cf565b9050602081019050919050565b82818337600083830152505050565b60006117d66117d184611783565b611768565b9050828152602081018484840111156117f2576117f1611703565b5b6117fd8482856117b4565b509392505050565b600082601f83011261181a576118196116fe565b5b813561182a8482602086016117c3565b91505092915050565b61183c81611468565b811461184757600080fd5b50565b60008135905061185981611833565b92915050565b60008060408385031215611876576118756113e5565b5b600083013567ffffffffffffffff811115611894576118936113ea565b5b6118a085828601611805565b92505060206118b18582860161184a565b9150509250929050565b600060608201905081810360008301526118d581866114e0565b90506118e4602083018561147a565b6118f160408301846113b1565b949350505050565b600060208201905061190e600083018461147a565b92915050565b60008115159050919050565b61192981611914565b82525050565b60006020820190506119446000830184611920565b92915050565b60008060408385031215611961576119606113e5565b5b600061196f85828601611406565b925050602061198085828601611406565b9150509250929050565b6000602082840312156119a05761199f6113e5565b5b60006119ae8482850161184a565b91505092915050565b7f4e487b7100000000000000000000000000000000000000000000000000000000600052603260045260246000fd5b7f4e487b7100000000000000000000000000000000000000000000000000000000600052601160045260246000fd5b6000611a20826113a7565b91507fffffffffffffffffffffffffffffffffffffffffffffffffffffffffffffffff8203611a5257611a516119e6565b5b600182019050919050565b7f4e487b7100000000000000000000000000000000000000000000000000000000600052602260045260246000fd5b60006002820490506001821680611aa457607f821691505b602082108103611ab757611ab6611a5d565b5b50919050565b60008190508160005260206000209050919050565b60006020601f8301049050919050565b600082821b905092915050565b600060088302611b1f7fffffffffffffffffffffffffffffffffffffffffffffffffffffffffffffffff82611ae2565b611b298683611ae2565b95508019841693508086168417925050509392505050565b6000819050919050565b6000611b66611b61611b5c846113a7565b611b41565b6113a7565b9050919050565b6000819050919050565b611b8083611b4b565b611b94611b8c82611b6d565b848454611aef565b825550505050565b600090565b611ba9611b9c565b611bb4818484611b77565b505050565b5b81811015611bd857611bcd600082611ba1565b600181019050611bba565b5050565b601f821115611c1d57611bee81611abd565b611bf784611ad2565b81016020851015611c06578190505b611c1a611c1285611ad2565b830182611bb9565b50505b505050565b600082821c905092915050565b6000611c4060001984600802611c22565b1980831691505092915050565b6000611c598383611c2f565b9150826002028217905092915050565b611c7282611489565b67ffffffffffffffff811115611c8b57611c8a611708565b5b611c958254611a8c565b611ca0828285611bdc565b600060209050601f831160018114611cd35760008415611cc1578287015190505b611ccb8582611c4d565b865550611d33565b601f198416611ce186611abd565b60005b82811015611d0957848901518255600182019150602085019450602081019050611ce4565b86831015611d265784890151611d22601f891682611c2f565b8355505b6001600288020188555050505b505050505050565b6000604082019050611d5060008301856113b1565b8181036020830152611d6281846114e0565b90509392505050565b7f4e6f20656c696769626c652077696e6e657220666f756e642e00000000000000600082015250565b6000611da1601983611494565b9150611dac82611d6b565b602082019050919050565b60006020820190508181036000830152611dd081611d94565b9050919050565b7f43616e646964617465204944206f7574206f662072616e676500000000000000600082015250565b6000611e0d601983611494565b9150611e1882611dd7565b602082019050919050565b60006020820190508181036000830152611e3c81611e00565b9050919050565b6000611e4e826113a7565b9150611e59836113a7565b9250828203905081811115611e7157611e706119e6565b5b92915050565b6000604082019050611e8c60008301856113b1565b611e9960208301846113b1565b9392505050565b6000611eab826113a7565b9150611eb6836113a7565b9250828201905080821115611ece57611ecd6119e6565b5b9291505056fea264697066735822122058992b73230adadf66c096bc2d5f5808d4bc1b30544d9767e7c143fcbace41b664736f6c63430008180033",
  "linkReferences": {},
  "deployedLinkReferences": {}
}