{
  "_format": "hh-sol-artifact-1",
  "contractName": "Payment",
  "sourceName": "contracts/Payment.sol",
  "abi": [
    {
      "inputs": [
        {
          "internalType": "address",
          "name": "initialOwner",
          "type": "address"
        },
        {
          "internalType": "uint256",
          "name": "_initialFee",
          "type": "uint256"
        },
        {
          "internalType": "uint256",
          "name": "_maxFreeVotes",
          "type": "uint256"
        },
        {
          "internalType": "uint256",
          "name": "_maxPaidVotes",
          "type": "uint256"
        }
      ],
      "stateMutability": "nonpayable",
      "type": "constructor"
    },
    {
      "inputs": [
        {
          "internalType": "address",
          "name": "owner",
          "type": "address"
        }
      ],
      "name": "OwnableInvalidOwner",
      "type": "error"
    },
    {
      "inputs": [
        {
          "internalType": "address",
          "name": "account",
          "type": "address"
        }
      ],
      "name": "OwnableUnauthorizedAccount",
      "type": "error"
    },
    {
      "anonymous": false,
      "inputs": [
        {
          "indexed": false,
          "internalType": "uint256",
          "name": "_votingFee",
          "type": "uint256"
        }
      ],
      "name": "FeeUpdated",
      "type": "event"
    },
    {
      "anonymous": false,
      "inputs": [
        {
          "indexed": false,
          "internalType": "uint256",
          "name": "_updatedNumber",
          "type": "uint256"
        }
      ],
      "name": "MaxPaidVotesUpdated",
      "type": "event"
    },
    {
      "anonymous": false,
      "inputs": [
        {
          "indexed": true,
          "internalType": "address",
          "name": "previousOwner",
          "type": "address"
        },
        {
          "indexed": true,
          "internalType": "address",
          "name": "newOwner",
          "type": "address"
        }
      ],
      "name": "OwnershipTransferred",
      "type": "event"
    },
    {
      "anonymous": false,
      "inputs": [
        {
          "indexed": true,
          "internalType": "address",
          "name": "payer",
          "type": "address"
        }
      ],
      "name": "PaymentReceived",
      "type": "event"
    },
    {
      "anonymous": false,
      "inputs": [
        {
          "indexed": false,
          "internalType": "uint256",
          "name": "totalCollectedFees",
          "type": "uint256"
        }
      ],
      "name": "WinnerPaid",
      "type": "event"
    },
    {
      "inputs": [
        {
          "internalType": "address",
          "name": "voter",
          "type": "address"
        }
      ],
      "name": "getTotalPaidVotes",
      "outputs": [
        {
          "internalType": "uint256",
          "name": "",
          "type": "uint256"
        }
      ],
      "stateMutability": "view",
      "type": "function"
    },
    {
      "inputs": [],
      "name": "maxFreeVotes",
      "outputs": [
        {
          "internalType": "uint256",
          "name": "",
          "type": "uint256"
        }
      ],
      "stateMutability": "view",
      "type": "function"
    },
    {
      "inputs": [],
      "name": "maxPaidVotes",
      "outputs": [
        {
          "internalType": "uint256",
          "name": "",
          "type": "uint256"
        }
      ],
      "stateMutability": "view",
      "type": "function"
    },
    {
      "inputs": [],
      "name": "owner",
      "outputs": [
        {
          "internalType": "address",
          "name": "",
          "type": "address"
        }
      ],
      "stateMutability": "view",
      "type": "function"
    },
    {
      "inputs": [
        {
          "internalType": "address",
          "name": "voter",
          "type": "address"
        }
      ],
      "name": "payToVote",
      "outputs": [],
      "stateMutability": "payable",
      "type": "function"
    },
    {
      "inputs": [
        {
          "internalType": "address",
          "name": "winner",
          "type": "address"
        }
      ],
      "name": "releaseFunds",
      "outputs": [],
      "stateMutability": "nonpayable",
      "type": "function"
    },
    {
      "inputs": [],
      "name": "renounceOwnership",
      "outputs": [],
      "stateMutability": "nonpayable",
      "type": "function"
    },
    {
      "inputs": [
        {
          "internalType": "address",
          "name": "newOwner",
          "type": "address"
        }
      ],
      "name": "transferOwnership",
      "outputs": [],
      "stateMutability": "nonpayable",
      "type": "function"
    },
    {
      "inputs": [
        {
          "internalType": "uint256",
          "name": "_updatedFee",
          "type": "uint256"
        }
      ],
      "name": "updateFees",
      "outputs": [],
      "stateMutability": "nonpayable",
      "type": "function"
    },
    {
      "inputs": [
        {
          "internalType": "uint256",
          "name": "_maxPaidVotes",
          "type": "uint256"
        }
      ],
      "name": "updateMaxPaidVotes",
      "outputs": [],
      "stateMutability": "nonpayable",
      "type": "function"
    },
    {
      "inputs": [
        {
          "internalType": "address",
          "name": "",
          "type": "address"
        }
      ],
      "name": "votesPaid",
      "outputs": [
        {
          "internalType": "uint256",
          "name": "",
          "type": "uint256"
        }
      ],
      "stateMutability": "view",
      "type": "function"
    },
    {
      "inputs": [],
      "name": "votingFee",
      "outputs": [
        {
          "internalType": "uint256",
          "name": "",
          "type": "uint256"
        }
      ],
      "stateMutability": "view",
      "type": "function"
    }
  ],
  "bytecode": "0x60806040523480156200001157600080fd5b506040516200104d3803806200104d833981810160405281019062000037919062000305565b83600073ffffffffffffffffffffffffffffffffffffffff168173ffffffffffffffffffffffffffffffffffffffff1603620000ad5760006040517f1e4fbdf7000000000000000000000000000000000000000000000000000000008152600401620000a4919062000388565b60405180910390fd5b620000be816200019c60201b60201c565b50818180821062000106576040517f08c379a0000000000000000000000000000000000000000000000000000000008152600401620000fd9062000406565b60405180910390fd5b600073ffffffffffffffffffffffffffffffffffffffff168673ffffffffffffffffffffffffffffffffffffffff16036200017b5760006040517f1e4fbdf700000000000000000000000000000000000000000000000000000000815260040162000172919062000388565b60405180910390fd5b84600281905550836004819055508260038190555050505050505062000428565b60008060009054906101000a900473ffffffffffffffffffffffffffffffffffffffff169050816000806101000a81548173ffffffffffffffffffffffffffffffffffffffff021916908373ffffffffffffffffffffffffffffffffffffffff1602179055508173ffffffffffffffffffffffffffffffffffffffff168173ffffffffffffffffffffffffffffffffffffffff167f8be0079c531659141344cd1fd0a4f28419497f9722a3daafe3b4186f6b6457e060405160405180910390a35050565b600080fd5b600073ffffffffffffffffffffffffffffffffffffffff82169050919050565b6000620002928262000265565b9050919050565b620002a48162000285565b8114620002b057600080fd5b50565b600081519050620002c48162000299565b92915050565b6000819050919050565b620002df81620002ca565b8114620002eb57600080fd5b50565b600081519050620002ff81620002d4565b92915050565b6000806000806080858703121562000322576200032162000260565b5b60006200033287828801620002b3565b94505060206200034587828801620002ee565b93505060406200035887828801620002ee565b92505060606200036b87828801620002ee565b91505092959194509250565b620003828162000285565b82525050565b60006020820190506200039f600083018462000377565b92915050565b600082825260208201905092915050565b7f496e76616c69642072616e6765206f6620667265652f7061696420766f746573600082015250565b6000620003ee602083620003a5565b9150620003fb82620003b6565b602082019050919050565b600060208201905081810360008301526200042181620003df565b9050919050565b610c1580620004386000396000f3fe6080604052600436106100a75760003560e01c806386b41db31161006457806386b41db3146101a85780638da5cb5b146101e5578063dab306b114610210578063e62e355b1461023b578063ebda927514610264578063f2fde38b14610280576100a7565b8063192e7a7b146100ac578063564cf003146100d5578063715018a61461010057806378dacee114610117578063823c0bc914610140578063862bd9aa1461017d575b600080fd5b3480156100b857600080fd5b506100d360048036038101906100ce91906108a3565b6102a9565b005b3480156100e157600080fd5b506100ea61037b565b6040516100f791906108e9565b60405180910390f35b34801561010c57600080fd5b50610115610381565b005b34801561012357600080fd5b5061013e60048036038101906101399190610930565b610395565b005b34801561014c57600080fd5b50610167600480360381019061016291906108a3565b6103e0565b60405161017491906108e9565b60405180910390f35b34801561018957600080fd5b50610192610429565b60405161019f91906108e9565b60405180910390f35b3480156101b457600080fd5b506101cf60048036038101906101ca91906108a3565b61042f565b6040516101dc91906108e9565b60405180910390f35b3480156101f157600080fd5b506101fa610447565b604051610207919061096c565b60405180910390f35b34801561021c57600080fd5b50610225610470565b60405161023291906108e9565b60405180910390f35b34801561024757600080fd5b50610262600480360381019061025d9190610930565b610476565b005b61027e600480360381019061027991906108a3565b6104c1565b005b34801561028c57600080fd5b506102a760048036038101906102a291906108a3565b610667565b005b6102b16106ed565b6000479050600081116102f9576040517f08c379a00000000000000000000000000000000000000000000000000000000081526004016102f0906109e4565b60405180910390fd5b8173ffffffffffffffffffffffffffffffffffffffff166108fc829081150290604051600060405180830381858888f1935050505015801561033f573d6000803e3d6000fd5b507ff7e086f5434714d8a263f91620a37c9eae9150cff87ec81222c2b31f823e52188160405161036f91906108e9565b60405180910390a15050565b60045481565b6103896106ed565b6103936000610774565b565b61039d6106ed565b806002819055507f8c4d35e54a3f2ef1134138fd8ea3daee6a3c89e10d2665996babdf70261e2c766002546040516103d591906108e9565b60405180910390a150565b6000600160008373ffffffffffffffffffffffffffffffffffffffff1673ffffffffffffffffffffffffffffffffffffffff168152602001908152602001600020549050919050565b60035481565b60016020528060005260406000206000915090505481565b60008060009054906101000a900473ffffffffffffffffffffffffffffffffffffffff16905090565b60025481565b61047e6106ed565b806003819055507fa1a01bde6374770d6753233c39c38e593a970ce42a8737e0fa4daf454c6209266003546040516104b691906108e9565b60405180910390a150565b600254341015610506576040517f08c379a00000000000000000000000000000000000000000000000000000000081526004016104fd90610a50565b60405180910390fd5b6002543411156105cb5760008173ffffffffffffffffffffffffffffffffffffffff16600254346105379190610a9f565b60405161054390610b04565b60006040518083038185875af1925050503d8060008114610580576040519150601f19603f3d011682016040523d82523d6000602084013e610585565b606091505b50509050806105c9576040517f08c379a00000000000000000000000000000000000000000000000000000000081526004016105c090610b8b565b60405180910390fd5b505b60018060008373ffffffffffffffffffffffffffffffffffffffff1673ffffffffffffffffffffffffffffffffffffffff168152602001908152602001600020600082825461061a9190610bab565b925050819055508073ffffffffffffffffffffffffffffffffffffffff167fb69dbb3426fce493612cfd8266f1d814871a73dacb08c4195d2c9bcba69519c360405160405180910390a250565b61066f6106ed565b600073ffffffffffffffffffffffffffffffffffffffff168173ffffffffffffffffffffffffffffffffffffffff16036106e15760006040517f1e4fbdf70000000000000000000000000000000000000000000000000000000081526004016106d8919061096c565b60405180910390fd5b6106ea81610774565b50565b6106f5610838565b73ffffffffffffffffffffffffffffffffffffffff16610713610447565b73ffffffffffffffffffffffffffffffffffffffff161461077257610736610838565b6040517f118cdaa7000000000000000000000000000000000000000000000000000000008152600401610769919061096c565b60405180910390fd5b565b60008060009054906101000a900473ffffffffffffffffffffffffffffffffffffffff169050816000806101000a81548173ffffffffffffffffffffffffffffffffffffffff021916908373ffffffffffffffffffffffffffffffffffffffff1602179055508173ffffffffffffffffffffffffffffffffffffffff168173ffffffffffffffffffffffffffffffffffffffff167f8be0079c531659141344cd1fd0a4f28419497f9722a3daafe3b4186f6b6457e060405160405180910390a35050565b600033905090565b600080fd5b600073ffffffffffffffffffffffffffffffffffffffff82169050919050565b600061087082610845565b9050919050565b61088081610865565b811461088b57600080fd5b50565b60008135905061089d81610877565b92915050565b6000602082840312156108b9576108b8610840565b5b60006108c78482850161088e565b91505092915050565b6000819050919050565b6108e3816108d0565b82525050565b60006020820190506108fe60008301846108da565b92915050565b61090d816108d0565b811461091857600080fd5b50565b60008135905061092a81610904565b92915050565b60006020828403121561094657610945610840565b5b60006109548482850161091b565b91505092915050565b61096681610865565b82525050565b6000602082019050610981600083018461095d565b92915050565b600082825260208201905092915050565b7f4e6f2066756e647320746f206469737472696275746500000000000000000000600082015250565b60006109ce601683610987565b91506109d982610998565b602082019050919050565b600060208201905081810360008301526109fd816109c1565b9050919050565b7f4e6f7420656e6f756768204554482073656e7400000000000000000000000000600082015250565b6000610a3a601383610987565b9150610a4582610a04565b602082019050919050565b60006020820190508181036000830152610a6981610a2d565b9050919050565b7f4e487b7100000000000000000000000000000000000000000000000000000000600052601160045260246000fd5b6000610aaa826108d0565b9150610ab5836108d0565b9250828203905081811115610acd57610acc610a70565b5b92915050565b600081905092915050565b50565b6000610aee600083610ad3565b9150610af982610ade565b600082019050919050565b6000610b0f82610ae1565b9150819050919050565b7f4661696c656420746f2073656e6420746865206578747261204574686572206260008201527f61636b0000000000000000000000000000000000000000000000000000000000602082015250565b6000610b75602383610987565b9150610b8082610b19565b604082019050919050565b60006020820190508181036000830152610ba481610b68565b9050919050565b6000610bb6826108d0565b9150610bc1836108d0565b9250828201905080821115610bd957610bd8610a70565b5b9291505056fea2646970667358221220d5f85ab09fbe5648e65f14bd7f9f47def33c13cdb14ed321ade3ad6931dc48e564736f6c63430008180033",
  "linkReferences": {},
  "deployedLinkReferences": {}
}