{
  "_format": "hh-sol-artifact-1",
  "contractName": "Voting",
  "sourceName": "contracts/Voting.sol",
  "abi": [
    {
      "inputs": [
        {
          "internalType": "address",
          "name": "initialOwner",
          "type": "address"
        },
        {
          "internalType": "address",
          "name": "_admin",
          "type": "address"
        },
        {
          "internalType": "address",
          "name": "_payment",
          "type": "address"
        }
      ],
      "stateMutability": "nonpayable",
      "type": "constructor"
    },
    {
      "inputs": [],
      "name": "InvalidVote",
      "type": "error"
    },
    {
      "inputs": [
        {
          "internalType": "address",
          "name": "owner",
          "type": "address"
        }
      ],
      "name": "OwnableInvalidOwner",
      "type": "error"
    },
    {
      "inputs": [
        {
          "internalType": "address",
          "name": "account",
          "type": "address"
        }
      ],
      "name": "OwnableUnauthorizedAccount",
      "type": "error"
    },
    {
      "anonymous": false,
      "inputs": [
        {
          "indexed": false,
          "internalType": "uint256",
          "name": "votingEnd",
          "type": "uint256"
        },
        {
          "indexed": false,
          "internalType": "uint256",
          "name": "currentTimestamp",
          "type": "uint256"
        }
      ],
      "name": "DebugTimestamp",
      "type": "event"
    },
    {
      "anonymous": false,
      "inputs": [
        {
          "indexed": true,
          "internalType": "address",
          "name": "previousOwner",
          "type": "address"
        },
        {
          "indexed": true,
          "internalType": "address",
          "name": "newOwner",
          "type": "address"
        }
      ],
      "name": "OwnershipTransferred",
      "type": "event"
    },
    {
      "anonymous": false,
      "inputs": [
        {
          "indexed": false,
          "internalType": "address",
          "name": "voter",
          "type": "address"
        },
        {
          "indexed": false,
          "internalType": "uint256",
          "name": "candidateId",
          "type": "uint256"
        }
      ],
      "name": "VotedSuccessfully",
      "type": "event"
    },
    {
      "anonymous": false,
      "inputs": [
        {
          "indexed": false,
          "internalType": "address",
          "name": "voter",
          "type": "address"
        }
      ],
      "name": "VoterRegistered",
      "type": "event"
    },
    {
      "anonymous": false,
      "inputs": [
        {
          "indexed": false,
          "internalType": "string",
          "name": "winnerName",
          "type": "string"
        },
        {
          "indexed": false,
          "internalType": "address",
          "name": "winnerAddress",
          "type": "address"
        },
        {
          "indexed": false,
          "internalType": "uint256",
          "name": "winnerVotes",
          "type": "uint256"
        }
      ],
      "name": "WinnerDeclared",
      "type": "event"
    },
    {
      "inputs": [],
      "name": "checkFeeForPaidVotes",
      "outputs": [
        {
          "internalType": "uint256",
          "name": "fee",
          "type": "uint256"
        }
      ],
      "stateMutability": "view",
      "type": "function"
    },
    {
      "inputs": [],
      "name": "checkVotesPerVoter",
      "outputs": [
        {
          "internalType": "uint256",
          "name": "votedTimes",
          "type": "uint256"
        }
      ],
      "stateMutability": "view",
      "type": "function"
    },
    {
      "inputs": [],
      "name": "declareWinner",
      "outputs": [],
      "stateMutability": "nonpayable",
      "type": "function"
    },
    {
      "inputs": [],
      "name": "findPaidVotesLeft",
      "outputs": [
        {
          "internalType": "uint256",
          "name": "rest",
          "type": "uint256"
        }
      ],
      "stateMutability": "view",
      "type": "function"
    },
    {
      "inputs": [],
      "name": "getAllCandidates",
      "outputs": [
        {
          "internalType": "uint256[]",
          "name": "",
          "type": "uint256[]"
        }
      ],
      "stateMutability": "view",
      "type": "function"
    },
    {
      "inputs": [],
      "name": "getWinner",
      "outputs": [
        {
          "internalType": "string",
          "name": "name",
          "type": "string"
        },
        {
          "internalType": "address",
          "name": "candidateAddress",
          "type": "address"
        },
        {
          "internalType": "uint256",
          "name": "totalVotes",
          "type": "uint256"
        }
      ],
      "stateMutability": "view",
      "type": "function"
    },
    {
      "inputs": [],
      "name": "owner",
      "outputs": [
        {
          "internalType": "address",
          "name": "",
          "type": "address"
        }
      ],
      "stateMutability": "view",
      "type": "function"
    },
    {
      "inputs": [],
      "name": "registerVoter",
      "outputs": [],
      "stateMutability": "nonpayable",
      "type": "function"
    },
    {
      "inputs": [],
      "name": "renounceOwnership",
      "outputs": [],
      "stateMutability": "nonpayable",
      "type": "function"
    },
    {
      "inputs": [
        {
          "internalType": "address",
          "name": "newOwner",
          "type": "address"
        }
      ],
      "name": "transferOwnership",
      "outputs": [],
      "stateMutability": "nonpayable",
      "type": "function"
    },
    {
      "inputs": [
        {
          "internalType": "uint256",
          "name": "_candidateId",
          "type": "uint256"
        }
      ],
      "name": "vote",
      "outputs": [],
      "stateMutability": "payable",
      "type": "function"
    },
    {
      "inputs": [
        {
          "internalType": "address",
          "name": "",
          "type": "address"
        }
      ],
      "name": "voters",
      "outputs": [
        {
          "internalType": "bool",
          "name": "isRegistered",
          "type": "bool"
        },
        {
          "internalType": "uint256",
          "name": "votes",
          "type": "uint256"
        }
      ],
      "stateMutability": "view",
      "type": "function"
    }
  ],
  "bytecode": "0x60806040523480156200001157600080fd5b50604051620021d0380380620021d08339818101604052810190620000379190620002ed565b82600073ffffffffffffffffffffffffffffffffffffffff168173ffffffffffffffffffffffffffffffffffffffff1603620000ad5760006040517f1e4fbdf7000000000000000000000000000000000000000000000000000000008152600401620000a491906200035a565b60405180910390fd5b620000be81620001bf60201b60201c565b50600073ffffffffffffffffffffffffffffffffffffffff168373ffffffffffffffffffffffffffffffffffffffff1603620001345760006040517f1e4fbdf70000000000000000000000000000000000000000000000000000000081526004016200012b91906200035a565b60405180910390fd5b81600160006101000a81548173ffffffffffffffffffffffffffffffffffffffff021916908373ffffffffffffffffffffffffffffffffffffffff16021790555080600260006101000a81548173ffffffffffffffffffffffffffffffffffffffff021916908373ffffffffffffffffffffffffffffffffffffffff16021790555050505062000377565b60008060009054906101000a900473ffffffffffffffffffffffffffffffffffffffff169050816000806101000a81548173ffffffffffffffffffffffffffffffffffffffff021916908373ffffffffffffffffffffffffffffffffffffffff1602179055508173ffffffffffffffffffffffffffffffffffffffff168173ffffffffffffffffffffffffffffffffffffffff167f8be0079c531659141344cd1fd0a4f28419497f9722a3daafe3b4186f6b6457e060405160405180910390a35050565b600080fd5b600073ffffffffffffffffffffffffffffffffffffffff82169050919050565b6000620002b58262000288565b9050919050565b620002c781620002a8565b8114620002d357600080fd5b50565b600081519050620002e781620002bc565b92915050565b60008060006060848603121562000309576200030862000283565b5b60006200031986828701620002d6565b93505060206200032c86828701620002d6565b92505060406200033f86828701620002d6565b9150509250925092565b6200035481620002a8565b82525050565b600060208201905062000371600083018462000349565b92915050565b611e4980620003876000396000f3fe6080604052600436106100a75760003560e01c80638da5cb5b116100645780638da5cb5b146101775780638e7ea5b2146101a2578063a3ec138d146101cf578063e4e848081461020d578063ecb617d914610238578063f2fde38b1461024f576100a7565b80630121b93f146100ac57806314034bd2146100c8578063151973b0146100df5780631dac9bfc1461010a5780632e6997fe14610135578063715018a614610160575b600080fd5b6100c660048036038101906100c191906114bd565b610278565b005b3480156100d457600080fd5b506100dd610719565b005b3480156100eb57600080fd5b506100f46108d4565b60405161010191906114f9565b60405180910390f35b34801561011657600080fd5b5061011f61096c565b60405161012c91906114f9565b60405180910390f35b34801561014157600080fd5b5061014a6109b6565b60405161015791906115d2565b60405180910390f35b34801561016c57600080fd5b50610175610a53565b005b34801561018357600080fd5b5061018c610a67565b6040516101999190611635565b60405180910390f35b3480156101ae57600080fd5b506101b7610a90565b6040516101c6939291906116e0565b60405180910390f35b3480156101db57600080fd5b506101f660048036038101906101f1919061174a565b610c14565b604051610204929190611792565b60405180910390f35b34801561021957600080fd5b50610222610c45565b60405161022f91906114f9565b60405180910390f35b34801561024457600080fd5b5061024d610e20565b005b34801561025b57600080fd5b506102766004803603810190610271919061174a565b6110fb565b005b600160009054906101000a900473ffffffffffffffffffffffffffffffffffffffff1673ffffffffffffffffffffffffffffffffffffffff1663101158af6040518163ffffffff1660e01b8152600401602060405180830381865afa1580156102e5573d6000803e3d6000fd5b505050506040513d601f19601f8201168201806040525081019061030991906117d0565b42101580156103a85750600160009054906101000a900473ffffffffffffffffffffffffffffffffffffffff1673ffffffffffffffffffffffffffffffffffffffff166385a386356040518163ffffffff1660e01b8152600401602060405180830381865afa158015610380573d6000803e3d6000fd5b505050506040513d601f19601f820116820180604052508101906103a491906117d0565b4211155b6103e7576040517f08c379a00000000000000000000000000000000000000000000000000000000081526004016103de90611849565b60405180910390fd5b33600360008273ffffffffffffffffffffffffffffffffffffffff1673ffffffffffffffffffffffffffffffffffffffff16815260200190815260200160002060000160009054906101000a900460ff16610477576040517f08c379a000000000000000000000000000000000000000000000000000000000815260040161046e906118b5565b60405180910390fd5b600160009054906101000a900473ffffffffffffffffffffffffffffffffffffffff1673ffffffffffffffffffffffffffffffffffffffff166392c1c7c6836040518263ffffffff1660e01b81526004016104d291906114f9565b602060405180830381865afa1580156104ef573d6000803e3d6000fd5b505050506040513d601f19601f820116820180604052508101906105139190611901565b610552576040517f08c379a00000000000000000000000000000000000000000000000000000000081526004016105499061197a565b60405180910390fd5b600061055c610c45565b03610593576040517fd5dd0c6600000000000000000000000000000000000000000000000000000000815260040160405180910390fd5b600260009054906101000a900473ffffffffffffffffffffffffffffffffffffffff1673ffffffffffffffffffffffffffffffffffffffff1663564cf0036040518163ffffffff1660e01b8152600401602060405180830381865afa158015610600573d6000803e3d6000fd5b505050506040513d601f19601f8201168201806040525081019061062491906117d0565b600360003373ffffffffffffffffffffffffffffffffffffffff1673ffffffffffffffffffffffffffffffffffffffff16815260200190815260200160002060010154101561067c576106778233611181565b610715565b600260009054906101000a900473ffffffffffffffffffffffffffffffffffffffff1673ffffffffffffffffffffffffffffffffffffffff1663ebda927534336040518363ffffffff1660e01b81526004016106d89190611635565b6000604051808303818588803b1580156106f157600080fd5b505af1158015610705573d6000803e3d6000fd5b50505050506107148233611181565b5b5050565b610721611320565b42600160009054906101000a900473ffffffffffffffffffffffffffffffffffffffff1673ffffffffffffffffffffffffffffffffffffffff166385a386356040518163ffffffff1660e01b8152600401602060405180830381865afa15801561078f573d6000803e3d6000fd5b505050506040513d601f19601f820116820180604052508101906107b391906117d0565b106107f3576040517f08c379a00000000000000000000000000000000000000000000000000000000081526004016107ea90611a0c565b60405180910390fd5b6000806000600160009054906101000a900473ffffffffffffffffffffffffffffffffffffffff1673ffffffffffffffffffffffffffffffffffffffff16636f8323e76040518163ffffffff1660e01b8152600401600060405180830381865afa158015610865573d6000803e3d6000fd5b505050506040513d6000823e3d601f19601f8201168201806040525081019061088e9190611b67565b9250925092507f702bf8d41ea9c9a260d584da4a7ce5801d856732271bdd30896fa689321d1a728383836040516108c7939291906116e0565b60405180910390a1505050565b6000600260009054906101000a900473ffffffffffffffffffffffffffffffffffffffff1673ffffffffffffffffffffffffffffffffffffffff1663dab306b16040518163ffffffff1660e01b8152600401602060405180830381865afa158015610943573d6000803e3d6000fd5b505050506040513d601f19601f8201168201806040525081019061096791906117d0565b905090565b6000600360003373ffffffffffffffffffffffffffffffffffffffff1673ffffffffffffffffffffffffffffffffffffffff16815260200190815260200160002060010154905090565b6060600160009054906101000a900473ffffffffffffffffffffffffffffffffffffffff1673ffffffffffffffffffffffffffffffffffffffff16632e6997fe6040518163ffffffff1660e01b8152600401600060405180830381865afa158015610a25573d6000803e3d6000fd5b505050506040513d6000823e3d601f19601f82011682018060405250810190610a4e9190611c9e565b905090565b610a5b611320565b610a6560006113a7565b565b60008060009054906101000a900473ffffffffffffffffffffffffffffffffffffffff16905090565b60606000806000600160009054906101000a900473ffffffffffffffffffffffffffffffffffffffff1673ffffffffffffffffffffffffffffffffffffffff166385a386356040518163ffffffff1660e01b8152600401602060405180830381865afa158015610b04573d6000803e3d6000fd5b505050506040513d601f19601f82011682018060405250810190610b2891906117d0565b90506000429050808210610b71576040517f08c379a0000000000000000000000000000000000000000000000000000000008152600401610b6890611a0c565b60405180910390fd5b600160009054906101000a900473ffffffffffffffffffffffffffffffffffffffff1673ffffffffffffffffffffffffffffffffffffffff16636f8323e76040518163ffffffff1660e01b8152600401600060405180830381865afa158015610bde573d6000803e3d6000fd5b505050506040513d6000823e3d601f19601f82011682018060405250810190610c079190611b67565b9450945094505050909192565b60036020528060005260406000206000915090508060000160009054906101000a900460ff16908060010154905082565b600033600360008273ffffffffffffffffffffffffffffffffffffffff1673ffffffffffffffffffffffffffffffffffffffff16815260200190815260200160002060000160009054906101000a900460ff16610cd7576040517f08c379a0000000000000000000000000000000000000000000000000000000008152600401610cce906118b5565b60405180910390fd5b6000600260009054906101000a900473ffffffffffffffffffffffffffffffffffffffff1673ffffffffffffffffffffffffffffffffffffffff1663823c0bc9336040518263ffffffff1660e01b8152600401610d349190611635565b602060405180830381865afa158015610d51573d6000803e3d6000fd5b505050506040513d601f19601f82011682018060405250810190610d7591906117d0565b9050600081600260009054906101000a900473ffffffffffffffffffffffffffffffffffffffff1673ffffffffffffffffffffffffffffffffffffffff1663862bd9aa6040518163ffffffff1660e01b8152600401602060405180830381865afa158015610de7573d6000803e3d6000fd5b505050506040513d601f19601f82011682018060405250810190610e0b91906117d0565b610e159190611d16565b905080935050505090565b600160009054906101000a900473ffffffffffffffffffffffffffffffffffffffff1673ffffffffffffffffffffffffffffffffffffffff1663101158af6040518163ffffffff1660e01b8152600401602060405180830381865afa158015610e8d573d6000803e3d6000fd5b505050506040513d601f19601f82011682018060405250810190610eb191906117d0565b4210158015610f505750600160009054906101000a900473ffffffffffffffffffffffffffffffffffffffff1673ffffffffffffffffffffffffffffffffffffffff166385a386356040518163ffffffff1660e01b8152600401602060405180830381865afa158015610f28573d6000803e3d6000fd5b505050506040513d601f19601f82011682018060405250810190610f4c91906117d0565b4211155b610f8f576040517f08c379a0000000000000000000000000000000000000000000000000000000008152600401610f8690611849565b60405180910390fd5b600360003373ffffffffffffffffffffffffffffffffffffffff1673ffffffffffffffffffffffffffffffffffffffff16815260200190815260200160002060000160009054906101000a900460ff161561101f576040517f08c379a000000000000000000000000000000000000000000000000000000000815260040161101690611d96565b60405180910390fd5b6001600360003373ffffffffffffffffffffffffffffffffffffffff1673ffffffffffffffffffffffffffffffffffffffff16815260200190815260200160002060000160006101000a81548160ff0219169083151502179055506000600360003373ffffffffffffffffffffffffffffffffffffffff1673ffffffffffffffffffffffffffffffffffffffff168152602001908152602001600020600101819055507fb6be2187d059cc2a55fe29e0e503b566e1e0f8c8780096e185429350acffd3dd336040516110f19190611635565b60405180910390a1565b611103611320565b600073ffffffffffffffffffffffffffffffffffffffff168173ffffffffffffffffffffffffffffffffffffffff16036111755760006040517f1e4fbdf700000000000000000000000000000000000000000000000000000000815260040161116c9190611635565b60405180910390fd5b61117e816113a7565b50565b600160009054906101000a900473ffffffffffffffffffffffffffffffffffffffff1673ffffffffffffffffffffffffffffffffffffffff1663ec8f56b7836040518263ffffffff1660e01b81526004016111dc91906114f9565b6020604051808303816000875af11580156111fb573d6000803e3d6000fd5b505050506040513d601f19601f8201168201806040525081019061121f91906117d0565b506001600360008373ffffffffffffffffffffffffffffffffffffffff1673ffffffffffffffffffffffffffffffffffffffff16815260200190815260200160002060010160008282546112739190611db6565b92505081905550600360008273ffffffffffffffffffffffffffffffffffffffff1673ffffffffffffffffffffffffffffffffffffffff1681526020019081526020016000206002018290806001815401808255809150506001900390600052602060002001600090919091909150557f48dad345366bfea21b64677d2ca9e8ac7be6cffd138328b9aa6a5eb72a39e5df8183604051611314929190611dea565b60405180910390a15050565b61132861146b565b73ffffffffffffffffffffffffffffffffffffffff16611346610a67565b73ffffffffffffffffffffffffffffffffffffffff16146113a55761136961146b565b6040517f118cdaa700000000000000000000000000000000000000000000000000000000815260040161139c9190611635565b60405180910390fd5b565b60008060009054906101000a900473ffffffffffffffffffffffffffffffffffffffff169050816000806101000a81548173ffffffffffffffffffffffffffffffffffffffff021916908373ffffffffffffffffffffffffffffffffffffffff1602179055508173ffffffffffffffffffffffffffffffffffffffff168173ffffffffffffffffffffffffffffffffffffffff167f8be0079c531659141344cd1fd0a4f28419497f9722a3daafe3b4186f6b6457e060405160405180910390a35050565b600033905090565b6000604051905090565b600080fd5b600080fd5b6000819050919050565b61149a81611487565b81146114a557600080fd5b50565b6000813590506114b781611491565b92915050565b6000602082840312156114d3576114d261147d565b5b60006114e1848285016114a8565b91505092915050565b6114f381611487565b82525050565b600060208201905061150e60008301846114ea565b92915050565b600081519050919050565b600082825260208201905092915050565b6000819050602082019050919050565b61154981611487565b82525050565b600061155b8383611540565b60208301905092915050565b6000602082019050919050565b600061157f82611514565b611589818561151f565b935061159483611530565b8060005b838110156115c55781516115ac888261154f565b97506115b783611567565b925050600181019050611598565b5085935050505092915050565b600060208201905081810360008301526115ec8184611574565b905092915050565b600073ffffffffffffffffffffffffffffffffffffffff82169050919050565b600061161f826115f4565b9050919050565b61162f81611614565b82525050565b600060208201905061164a6000830184611626565b92915050565b600081519050919050565b600082825260208201905092915050565b60005b8381101561168a57808201518184015260208101905061166f565b60008484015250505050565b6000601f19601f8301169050919050565b60006116b282611650565b6116bc818561165b565b93506116cc81856020860161166c565b6116d581611696565b840191505092915050565b600060608201905081810360008301526116fa81866116a7565b90506117096020830185611626565b61171660408301846114ea565b949350505050565b61172781611614565b811461173257600080fd5b50565b6000813590506117448161171e565b92915050565b6000602082840312156117605761175f61147d565b5b600061176e84828501611735565b91505092915050565b60008115159050919050565b61178c81611777565b82525050565b60006040820190506117a76000830185611783565b6117b460208301846114ea565b9392505050565b6000815190506117ca81611491565b92915050565b6000602082840312156117e6576117e561147d565b5b60006117f4848285016117bb565b91505092915050565b7f4f75747369646520766f74696e6720706572696f642100000000000000000000600082015250565b600061183360168361165b565b915061183e826117fd565b602082019050919050565b6000602082019050818103600083015261186281611826565b9050919050565b7f566f746572206e6f742072656769737465726564210000000000000000000000600082015250565b600061189f60158361165b565b91506118aa82611869565b602082019050919050565b600060208201905081810360008301526118ce81611892565b9050919050565b6118de81611777565b81146118e957600080fd5b50565b6000815190506118fb816118d5565b92915050565b6000602082840312156119175761191661147d565b5b6000611925848285016118ec565b91505092915050565b7f43616e646964617465206e6f7420656c696769626c6500000000000000000000600082015250565b600061196460168361165b565b915061196f8261192e565b602082019050919050565b6000602082019050818103600083015261199381611957565b9050919050565b7f57696e6e6572206973206465636c6172656420616674657220766f74696e672060008201527f706572696f6420656e6465642100000000000000000000000000000000000000602082015250565b60006119f6602d8361165b565b9150611a018261199a565b604082019050919050565b60006020820190508181036000830152611a25816119e9565b9050919050565b600080fd5b600080fd5b7f4e487b7100000000000000000000000000000000000000000000000000000000600052604160045260246000fd5b611a6e82611696565b810181811067ffffffffffffffff82111715611a8d57611a8c611a36565b5b80604052505050565b6000611aa0611473565b9050611aac8282611a65565b919050565b600067ffffffffffffffff821115611acc57611acb611a36565b5b611ad582611696565b9050602081019050919050565b6000611af5611af084611ab1565b611a96565b905082815260208101848484011115611b1157611b10611a31565b5b611b1c84828561166c565b509392505050565b600082601f830112611b3957611b38611a2c565b5b8151611b49848260208601611ae2565b91505092915050565b600081519050611b618161171e565b92915050565b600080600060608486031215611b8057611b7f61147d565b5b600084015167ffffffffffffffff811115611b9e57611b9d611482565b5b611baa86828701611b24565b9350506020611bbb86828701611b52565b9250506040611bcc868287016117bb565b9150509250925092565b600067ffffffffffffffff821115611bf157611bf0611a36565b5b602082029050602081019050919050565b600080fd5b6000611c1a611c1584611bd6565b611a96565b90508083825260208201905060208402830185811115611c3d57611c3c611c02565b5b835b81811015611c665780611c5288826117bb565b845260208401935050602081019050611c3f565b5050509392505050565b600082601f830112611c8557611c84611a2c565b5b8151611c95848260208601611c07565b91505092915050565b600060208284031215611cb457611cb361147d565b5b600082015167ffffffffffffffff811115611cd257611cd1611482565b5b611cde84828501611c70565b91505092915050565b7f4e487b7100000000000000000000000000000000000000000000000000000000600052601160045260246000fd5b6000611d2182611487565b9150611d2c83611487565b9250828203905081811115611d4457611d43611ce7565b5b92915050565b7f566f74657220616c726561647920726567697374657265640000000000000000600082015250565b6000611d8060188361165b565b9150611d8b82611d4a565b602082019050919050565b60006020820190508181036000830152611daf81611d73565b9050919050565b6000611dc182611487565b9150611dcc83611487565b9250828201905080821115611de457611de3611ce7565b5b92915050565b6000604082019050611dff6000830185611626565b611e0c60208301846114ea565b939250505056fea2646970667358221220320715e848033ba9085bb7769c4124c714e0384e57955bb790f052d1baa7601964736f6c63430008180033",
  "linkReferences": {},
  "deployedLinkReferences": {}
}